{
  "contractName": "Patient",
  "abi": [
    {
      "anonymous": false,
      "inputs": [
        {
          "indexed": false,
          "internalType": "address",
          "name": "id_",
          "type": "address"
        },
        {
          "indexed": false,
          "internalType": "string",
          "name": "_fname",
          "type": "string"
        },
        {
          "indexed": false,
          "internalType": "string",
          "name": "_lname",
          "type": "string"
        },
        {
          "indexed": false,
          "internalType": "uint256",
          "name": "_cin",
          "type": "uint256"
        },
        {
          "indexed": false,
          "internalType": "uint256",
          "name": "_phone",
          "type": "uint256"
        },
        {
          "indexed": false,
          "internalType": "string",
          "name": "_email",
          "type": "string"
        }
      ],
      "name": "PatientAdded",
      "type": "event"
    },
    {
      "inputs": [
        {
          "internalType": "address",
          "name": "_id",
          "type": "address"
        },
        {
          "internalType": "string",
          "name": "_fname",
          "type": "string"
        },
        {
          "internalType": "string",
          "name": "_lname",
          "type": "string"
        },
        {
          "internalType": "uint256",
          "name": "_cin",
          "type": "uint256"
        },
        {
          "internalType": "uint256",
          "name": "_phone",
          "type": "uint256"
        },
        {
          "internalType": "string",
          "name": "_email",
          "type": "string"
        }
      ],
      "name": "store_patient_details",
      "outputs": [],
      "stateMutability": "nonpayable",
      "type": "function"
    },
    {
      "inputs": [
        {
          "internalType": "address",
          "name": "id",
          "type": "address"
        }
      ],
      "name": "retreive_patient_details",
      "outputs": [
        {
          "components": [
            {
              "internalType": "address",
              "name": "id",
              "type": "address"
            },
            {
              "internalType": "string",
              "name": "fname",
              "type": "string"
            },
            {
              "internalType": "string",
              "name": "lname",
              "type": "string"
            },
            {
              "internalType": "uint256",
              "name": "cin",
              "type": "uint256"
            },
            {
              "internalType": "uint256",
              "name": "phone",
              "type": "uint256"
            },
            {
              "internalType": "string",
              "name": "email",
              "type": "string"
            }
          ],
          "internalType": "struct Patient.patient",
          "name": "",
          "type": "tuple"
        }
      ],
      "stateMutability": "view",
      "type": "function",
      "constant": true
    }
  ],
  "bytecode": "0x608060405234801561001057600080fd5b50610f97806100206000396000f3fe608060405234801561001057600080fd5b50600436106100365760003560e01c80634904ac671461003b578063939f179d1461006b575b600080fd5b6100556004803603810190610050919061067c565b610087565b60405161006291906107f8565b60405180910390f35b6100856004803603810190610080919061097b565b610300565b005b61008f6105be565b600160008373ffffffffffffffffffffffffffffffffffffffff1673ffffffffffffffffffffffffffffffffffffffff1681526020019081526020016000206040518060c00160405290816000820160009054906101000a900473ffffffffffffffffffffffffffffffffffffffff1673ffffffffffffffffffffffffffffffffffffffff1673ffffffffffffffffffffffffffffffffffffffff16815260200160018201805461013f90610a8b565b80601f016020809104026020016040519081016040528092919081815260200182805461016b90610a8b565b80156101b85780601f1061018d576101008083540402835291602001916101b8565b820191906000526020600020905b81548152906001019060200180831161019b57829003601f168201915b505050505081526020016002820180546101d190610a8b565b80601f01602080910402602001604051908101604052809291908181526020018280546101fd90610a8b565b801561024a5780601f1061021f5761010080835404028352916020019161024a565b820191906000526020600020905b81548152906001019060200180831161022d57829003601f168201915b50505050508152602001600382015481526020016004820154815260200160058201805461027790610a8b565b80601f01602080910402602001604051908101604052809291908181526020018280546102a390610a8b565b80156102f05780601f106102c5576101008083540402835291602001916102f0565b820191906000526020600020905b8154815290600101906020018083116102d357829003601f168201915b5050505050815250509050919050565b85600260000160006101000a81548173ffffffffffffffffffffffffffffffffffffffff021916908373ffffffffffffffffffffffffffffffffffffffff16021790555084600260010190816103569190610c68565b50836002800190816103689190610c68565b508260026003018190555081600260040181905550806002600501908161038f9190610c68565b50600260016000600260000160009054906101000a900473ffffffffffffffffffffffffffffffffffffffff1673ffffffffffffffffffffffffffffffffffffffff1673ffffffffffffffffffffffffffffffffffffffff1681526020019081526020016000206000820160009054906101000a900473ffffffffffffffffffffffffffffffffffffffff168160000160006101000a81548173ffffffffffffffffffffffffffffffffffffffff021916908373ffffffffffffffffffffffffffffffffffffffff160217905550600182018160010190816104719190610d50565b50600282018160020190816104869190610d50565b506003820154816003015560048201548160040155600582018160050190816104af9190610d50565b509050506000600260000160009054906101000a900473ffffffffffffffffffffffffffffffffffffffff169080600181540180825580915050600190039060005260206000200160009091909190916101000a81548173ffffffffffffffffffffffffffffffffffffffff021916908373ffffffffffffffffffffffffffffffffffffffff1602179055507f2f93592d8d551fe913111b372411904209242c265e8ee035f31c26de89a14b65600260000160009054906101000a900473ffffffffffffffffffffffffffffffffffffffff1660026001016002800160026003015460026004015460026005016040516105ae96959493929190610eeb565b60405180910390a1505050505050565b6040518060c00160405280600073ffffffffffffffffffffffffffffffffffffffff16815260200160608152602001606081526020016000815260200160008152602001606081525090565b6000604051905090565b600080fd5b600080fd5b600073ffffffffffffffffffffffffffffffffffffffff82169050919050565b60006106498261061e565b9050919050565b6106598161063e565b811461066457600080fd5b50565b60008135905061067681610650565b92915050565b60006020828403121561069257610691610614565b5b60006106a084828501610667565b91505092915050565b6106b28161063e565b82525050565b600081519050919050565b600082825260208201905092915050565b60005b838110156106f25780820151818401526020810190506106d7565b60008484015250505050565b6000601f19601f8301169050919050565b600061071a826106b8565b61072481856106c3565b93506107348185602086016106d4565b61073d816106fe565b840191505092915050565b6000819050919050565b61075b81610748565b82525050565b600060c08301600083015161077960008601826106a9565b5060208301518482036020860152610791828261070f565b915050604083015184820360408601526107ab828261070f565b91505060608301516107c06060860182610752565b5060808301516107d36080860182610752565b5060a083015184820360a08601526107eb828261070f565b9150508091505092915050565b600060208201905081810360008301526108128184610761565b905092915050565b600080fd5b600080fd5b7f4e487b7100000000000000000000000000000000000000000000000000000000600052604160045260246000fd5b61085c826106fe565b810181811067ffffffffffffffff8211171561087b5761087a610824565b5b80604052505050565b600061088e61060a565b905061089a8282610853565b919050565b600067ffffffffffffffff8211156108ba576108b9610824565b5b6108c3826106fe565b9050602081019050919050565b82818337600083830152505050565b60006108f26108ed8461089f565b610884565b90508281526020810184848401111561090e5761090d61081f565b5b6109198482856108d0565b509392505050565b600082601f8301126109365761093561081a565b5b81356109468482602086016108df565b91505092915050565b61095881610748565b811461096357600080fd5b50565b6000813590506109758161094f565b92915050565b60008060008060008060c0878903121561099857610997610614565b5b60006109a689828a01610667565b965050602087013567ffffffffffffffff8111156109c7576109c6610619565b5b6109d389828a01610921565b955050604087013567ffffffffffffffff8111156109f4576109f3610619565b5b610a0089828a01610921565b9450506060610a1189828a01610966565b9350506080610a2289828a01610966565b92505060a087013567ffffffffffffffff811115610a4357610a42610619565b5b610a4f89828a01610921565b9150509295509295509295565b7f4e487b7100000000000000000000000000000000000000000000000000000000600052602260045260246000fd5b60006002820490506001821680610aa357607f821691505b602082108103610ab657610ab5610a5c565b5b50919050565b60008190508160005260206000209050919050565b60006020601f8301049050919050565b600082821b905092915050565b600060088302610b1e7fffffffffffffffffffffffffffffffffffffffffffffffffffffffffffffffff82610ae1565b610b288683610ae1565b95508019841693508086168417925050509392505050565b6000819050919050565b6000610b65610b60610b5b84610748565b610b40565b610748565b9050919050565b6000819050919050565b610b7f83610b4a565b610b93610b8b82610b6c565b848454610aee565b825550505050565b600090565b610ba8610b9b565b610bb3818484610b76565b505050565b5b81811015610bd757610bcc600082610ba0565b600181019050610bb9565b5050565b601f821115610c1c57610bed81610abc565b610bf684610ad1565b81016020851015610c05578190505b610c19610c1185610ad1565b830182610bb8565b50505b505050565b600082821c905092915050565b6000610c3f60001984600802610c21565b1980831691505092915050565b6000610c588383610c2e565b9150826002028217905092915050565b610c71826106b8565b67ffffffffffffffff811115610c8a57610c89610824565b5b610c948254610a8b565b610c9f828285610bdb565b600060209050601f831160018114610cd25760008415610cc0578287015190505b610cca8582610c4c565b865550610d32565b601f198416610ce086610abc565b60005b82811015610d0857848901518255600182019150602085019450602081019050610ce3565b86831015610d255784890151610d21601f891682610c2e565b8355505b6001600288020188555050505b505050505050565b600081549050610d4981610a8b565b9050919050565b818103610d5e575050610e36565b610d6782610d3a565b67ffffffffffffffff811115610d8057610d7f610824565b5b610d8a8254610a8b565b610d95828285610bdb565b6000601f831160018114610dc45760008415610db2578287015490505b610dbc8582610c4c565b865550610e2f565b601f198416610dd287610abc565b9650610ddd86610abc565b60005b82811015610e0557848901548255600182019150600185019450602081019050610de0565b86831015610e225784890154610e1e601f891682610c2e565b8355505b6001600288020188555050505b5050505050505b565b610e418161063e565b82525050565b600082825260208201905092915050565b60008154610e6581610a8b565b610e6f8186610e47565b94506001821660008114610e8a5760018114610ea057610ed3565b60ff198316865281151560200286019350610ed3565b610ea985610abc565b60005b83811015610ecb57815481890152600182019150602081019050610eac565b808801955050505b50505092915050565b610ee581610748565b82525050565b600060c082019050610f006000830189610e38565b8181036020830152610f128188610e58565b90508181036040830152610f268187610e58565b9050610f356060830186610edc565b610f426080830185610edc565b81810360a0830152610f548184610e58565b905097965050505050505056fea2646970667358221220988b4b61fc433c9a07042b5df2f282da0862e4b1fbd444f10a80d410f432aa9b64736f6c63430008110033",
  "immutableReferences": {},
  "source": "//SPDX-License-Identifier: UNLICENSED\r\npragma solidity ^0.8.17;\r\ncontract Patient {\r\n    address[] internal patientlist;\r\n    mapping(address => patient) internal patients;\r\n    // mapping(uint256 =>attendant) attendantlist;\r\n\r\n    event PatientAdded(\r\n        address id_,\r\n        string _fname,\r\n        string _lname,\r\n        uint256 _cin,\r\n        uint256 _phone,\r\n        string _email\r\n    );\r\n\r\n    struct patient {\r\n        address id;\r\n        string fname;\r\n        string lname;\r\n        uint256 cin;\r\n        uint256 phone;\r\n        string email;\r\n    }\r\n    patient p;\r\n\r\n\r\n    //  struct attendant{\r\n    //      uint256 patient_id;\r\n    //  string attendant_name;\r\n    //  string attendant_relation;\r\n    //  uint256 attendant_phn_no;\r\n    //  }\r\n    //  attendant a;\r\n\r\n    //  address owner;\r\n\r\n    //   constructor()  public {\r\n    //       owner = 0xE6005Cc724c2d44F0aF23d663017a7E375DD7F35; //Address of Hospital\r\n    //   }\r\n\r\n    //   // modifier to give access only to hospital\r\n    //   modifier isOwner() {\r\n\r\n    //      require(msg.sender == owner, \"Access is not allowed\");\r\n\r\n    //      _;\r\n\r\n    //  }\r\n\r\n    //  function store_patient_details(string memory _fname,string memory _lname,uint256  _cin, uint256 _phone ,string memory _email,string memory _address) public {\r\n\r\n    //   * @param _id id\r\n    //  * @param _fname fname\r\n    //  * @param _lname lname\r\n    //  * @param _cin cin\r\n    //  * @param _phone phone\r\n    //  * @param _email email\r\n    //  * @param _address adress\r\n    //  p.fname=_fname;\r\n    //  p.lname=_lname;\r\n    //  p.cin=_cin;\r\n    //  p.phone=_phone;\r\n    //  p.email=_email;\r\n    //  p.adress=_address;\r\n\r\n    //     patientlist.push(p.cin);\r\n\r\n    //      }\r\n\r\n    /**\r\n         * @dev Store patient details\r\n            //   * @param _id id\r\n            //  * @param _fname fname\r\n           //  * @param _lname lname\r\n          //  * @param _cin cin\r\n           //  * @param _phone phone\r\n            //  * @param _email email\r\n\r\n         */\r\n    function store_patient_details(\r\n        address _id,\r\n        string memory _fname,\r\n        string memory _lname,\r\n        uint256 _cin,\r\n        uint256 _phone,\r\n        string memory _email\r\n    ) public {\r\n        p.id = _id;\r\n        p.fname = _fname;\r\n        p.lname = _lname;\r\n        p.cin = _cin;\r\n        p.phone = _phone;\r\n        p.email = _email;\r\n        patients[p.id] = p;\r\n        patientlist.push(p.id);\r\n        emit PatientAdded(\r\n            p.id,\r\n            p.fname,\r\n            p.lname,\r\n            p.cin,\r\n            p.phone,\r\n            p.email\r\n        );\r\n    }\r\n\r\n    //  /**\r\n    //  * @dev Store attendant details\r\n    //  * @param patient_id patient id\r\n    //  * @param _attendant_name name of attendant\r\n    //  * @param _attendant_relation relation to patient\r\n    //  * @param _attendant_phn_no phone no\r\n    //  * */\r\n    //  function store_attendant_details(uint256 patient_id,string memory _attendant_name,string memory _attendant_relation, uint256 _attendant_phn_no)public isOwner {\r\n\r\n    //      a.patient_id = patient_id;\r\n    //     a.attendant_name=_attendant_name;\r\n    //      a.attendant_relation=_attendant_relation;\r\n    //      a.attendant_phn_no=_attendant_phn_no;\r\n\r\n    //      attendantlist[patient_id] = a;\r\n    //  }\r\n\r\n    /**\r\n    //  * @dev Retreive patient details\r\n    //  * @param id patient cin\r\n    //  * @return patient object\r\n     * */\r\n    function retreive_patient_details(address id)\r\n        public\r\n        view\r\n        returns (patient memory)\r\n    {\r\n        return patients[id];\r\n    }\r\n\r\n    //  /**\r\n    //  * @dev Retreive attendant details\r\n    //  * @param patient_id patient id\r\n    //  * */\r\n    //  function retreive_attendant_details(uint256 patient_id) public view returns (string memory,string memory,uint256){\r\n\r\n    //       attendant memory a = attendantlist[patient_id];\r\n\r\n    //   return (a.attendant_name,a.attendant_relation,a.attendant_phn_no);\r\n\r\n    //  }\r\n}",
  "sourcePath": "C:\\Users\\RAMI\\Desktop\\blockchain\\contracts\\contracts\\Patient.sol",
  "compiler": {
    "name": "solc",
    "version": "0.8.17+commit.8df45f5f.Emscripten.clang"
  },
  "schemaVersion": "3.4.11",
  "updatedAt": "2022-12-05T23:16:59.954Z",
  "networkType": "ethereum",
  "devdoc": {
    "kind": "dev",
    "methods": {
      "retreive_patient_details(address)": {
        "details": "Retreive patient details",
        "params": {
          "id": "patient cin"
        },
        "returns": {
          "_0": "patient object "
        }
      },
      "store_patient_details(address,string,string,uint256,uint256,string)": {
        "details": "Store patient details",
        "params": {
          "_cin": "cin",
          "_email": "email",
          "_fname": "fname",
          "_id": "id",
          "_lname": "lname",
          "_phone": "phone"
        }
      }
    },
    "version": 1
  },
  "userdoc": {
    "kind": "user",
    "methods": {},
    "version": 1
  }
}