{
    "contractName": "Patient",
    "abi": [
        {
            "anonymous": false,
            "inputs": [
                {
                    "indexed": false,
                    "internalType": "address",
                    "name": "id_",
                    "type": "address"
                },
                {
                    "indexed": false,
                    "internalType": "string",
                    "name": "_fname",
                    "type": "string"
                },
                {
                    "indexed": false,
                    "internalType": "string",
                    "name": "_lname",
                    "type": "string"
                },
                {
                    "indexed": false,
                    "internalType": "uint256",
                    "name": "_cin",
                    "type": "uint256"
                },
                {
                    "indexed": false,
                    "internalType": "uint256",
                    "name": "_phone",
                    "type": "uint256"
                },
                {
                    "indexed": false,
                    "internalType": "string",
                    "name": "_email",
                    "type": "string"
                },
                {
                    "indexed": false,
                    "internalType": "string",
                    "name": "_address",
                    "type": "string"
                }
            ],
            "name": "PatientAdded",
            "type": "event"
        },
        {
            "inputs": [
                {
                    "internalType": "address",
                    "name": "_id",
                    "type": "address"
                },
                {
                    "internalType": "string",
                    "name": "_fname",
                    "type": "string"
                },
                {
                    "internalType": "string",
                    "name": "_lname",
                    "type": "string"
                },
                {
                    "internalType": "uint256",
                    "name": "_cin",
                    "type": "uint256"
                },
                {
                    "internalType": "uint256",
                    "name": "_phone",
                    "type": "uint256"
                },
                {
                    "internalType": "string",
                    "name": "_email",
                    "type": "string"
                },
                {
                    "internalType": "string",
                    "name": "_address",
                    "type": "string"
                }
            ],
            "name": "store_patient_details",
            "outputs": [],
            "stateMutability": "nonpayable",
            "type": "function"
        },
        {
            "inputs": [
                {
                    "internalType": "address",
                    "name": "id",
                    "type": "address"
                }
            ],
            "name": "retreive_patient_details",
            "outputs": [
                {
                    "components": [
                        {
                            "internalType": "address",
                            "name": "id",
                            "type": "address"
                        },
                        {
                            "internalType": "string",
                            "name": "fname",
                            "type": "string"
                        },
                        {
                            "internalType": "string",
                            "name": "lname",
                            "type": "string"
                        },
                        {
                            "internalType": "uint256",
                            "name": "cin",
                            "type": "uint256"
                        },
                        {
                            "internalType": "uint256",
                            "name": "phone",
                            "type": "uint256"
                        },
                        {
                            "internalType": "string",
                            "name": "email",
                            "type": "string"
                        },
                        {
                            "internalType": "string",
                            "name": "adress",
                            "type": "string"
                        }
                    ],
                    "internalType": "struct Patient.patient",
                    "name": "",
                    "type": "tuple"
                }
            ],
            "stateMutability": "view",
            "type": "function",
            "constant": true
        }
    ],
    "bytecode": "0x608060405234801561001057600080fd5b506110bf806100206000396000f3fe608060405234801561001057600080fd5b50600436106100365760003560e01c806312d396f71461003b5780634904ac6714610057575b600080fd5b610055600480360381019061005091906108c0565b610087565b005b610071600480360381019061006c91906109d2565b610374565b60405161007e9190610b4d565b60405180910390f35b86600260000160006101000a81548173ffffffffffffffffffffffffffffffffffffffff021916908373ffffffffffffffffffffffffffffffffffffffff16021790555085600260010190816100dd9190610d7b565b50846002800190816100ef9190610d7b565b50836002600301819055508260026004018190555081600260050190816101169190610d7b565b5080600260060190816101299190610d7b565b50600260016000600260000160009054906101000a900473ffffffffffffffffffffffffffffffffffffffff1673ffffffffffffffffffffffffffffffffffffffff1673ffffffffffffffffffffffffffffffffffffffff1681526020019081526020016000206000820160009054906101000a900473ffffffffffffffffffffffffffffffffffffffff168160000160006101000a81548173ffffffffffffffffffffffffffffffffffffffff021916908373ffffffffffffffffffffffffffffffffffffffff1602179055506001820181600101908161020b9190610e63565b50600282018160020190816102209190610e63565b506003820154816003015560048201548160040155600582018160050190816102499190610e63565b506006820181600601908161025e9190610e63565b509050506000600260000160009054906101000a900473ffffffffffffffffffffffffffffffffffffffff169080600181540180825580915050600190039060005260206000200160009091909190916101000a81548173ffffffffffffffffffffffffffffffffffffffff021916908373ffffffffffffffffffffffffffffffffffffffff1602179055507f7b300d2df714598898b1ca010dbb27f48cb6e63fa5416193eb769cda6bbc53ff600260000160009054906101000a900473ffffffffffffffffffffffffffffffffffffffff16600260010160028001600260030154600260040154600260050160026006016040516103639796959493929190610ffe565b60405180910390a150505050505050565b61037c61067f565b600160008373ffffffffffffffffffffffffffffffffffffffff1673ffffffffffffffffffffffffffffffffffffffff1681526020019081526020016000206040518060e00160405290816000820160009054906101000a900473ffffffffffffffffffffffffffffffffffffffff1673ffffffffffffffffffffffffffffffffffffffff1673ffffffffffffffffffffffffffffffffffffffff16815260200160018201805461042c90610b9e565b80601f016020809104026020016040519081016040528092919081815260200182805461045890610b9e565b80156104a55780601f1061047a576101008083540402835291602001916104a5565b820191906000526020600020905b81548152906001019060200180831161048857829003601f168201915b505050505081526020016002820180546104be90610b9e565b80601f01602080910402602001604051908101604052809291908181526020018280546104ea90610b9e565b80156105375780601f1061050c57610100808354040283529160200191610537565b820191906000526020600020905b81548152906001019060200180831161051a57829003601f168201915b50505050508152602001600382015481526020016004820154815260200160058201805461056490610b9e565b80601f016020809104026020016040519081016040528092919081815260200182805461059090610b9e565b80156105dd5780601f106105b2576101008083540402835291602001916105dd565b820191906000526020600020905b8154815290600101906020018083116105c057829003601f168201915b505050505081526020016006820180546105f690610b9e565b80601f016020809104026020016040519081016040528092919081815260200182805461062290610b9e565b801561066f5780601f106106445761010080835404028352916020019161066f565b820191906000526020600020905b81548152906001019060200180831161065257829003601f168201915b5050505050815250509050919050565b6040518060e00160405280600073ffffffffffffffffffffffffffffffffffffffff1681526020016060815260200160608152602001600081526020016000815260200160608152602001606081525090565b6000604051905090565b600080fd5b600080fd5b600073ffffffffffffffffffffffffffffffffffffffff82169050919050565b6000610711826106e6565b9050919050565b61072181610706565b811461072c57600080fd5b50565b60008135905061073e81610718565b92915050565b600080fd5b600080fd5b6000601f19601f8301169050919050565b7f4e487b7100000000000000000000000000000000000000000000000000000000600052604160045260246000fd5b6107978261074e565b810181811067ffffffffffffffff821117156107b6576107b561075f565b5b80604052505050565b60006107c96106d2565b90506107d5828261078e565b919050565b600067ffffffffffffffff8211156107f5576107f461075f565b5b6107fe8261074e565b9050602081019050919050565b82818337600083830152505050565b600061082d610828846107da565b6107bf565b90508281526020810184848401111561084957610848610749565b5b61085484828561080b565b509392505050565b600082601f83011261087157610870610744565b5b813561088184826020860161081a565b91505092915050565b6000819050919050565b61089d8161088a565b81146108a857600080fd5b50565b6000813590506108ba81610894565b92915050565b600080600080600080600060e0888a0312156108df576108de6106dc565b5b60006108ed8a828b0161072f565b975050602088013567ffffffffffffffff81111561090e5761090d6106e1565b5b61091a8a828b0161085c565b965050604088013567ffffffffffffffff81111561093b5761093a6106e1565b5b6109478a828b0161085c565b95505060606109588a828b016108ab565b94505060806109698a828b016108ab565b93505060a088013567ffffffffffffffff81111561098a576109896106e1565b5b6109968a828b0161085c565b92505060c088013567ffffffffffffffff8111156109b7576109b66106e1565b5b6109c38a828b0161085c565b91505092959891949750929550565b6000602082840312156109e8576109e76106dc565b5b60006109f68482850161072f565b91505092915050565b610a0881610706565b82525050565b600081519050919050565b600082825260208201905092915050565b60005b83811015610a48578082015181840152602081019050610a2d565b60008484015250505050565b6000610a5f82610a0e565b610a698185610a19565b9350610a79818560208601610a2a565b610a828161074e565b840191505092915050565b610a968161088a565b82525050565b600060e083016000830151610ab460008601826109ff565b5060208301518482036020860152610acc8282610a54565b91505060408301518482036040860152610ae68282610a54565b9150506060830151610afb6060860182610a8d565b506080830151610b0e6080860182610a8d565b5060a083015184820360a0860152610b268282610a54565b91505060c083015184820360c0860152610b408282610a54565b9150508091505092915050565b60006020820190508181036000830152610b678184610a9c565b905092915050565b7f4e487b7100000000000000000000000000000000000000000000000000000000600052602260045260246000fd5b60006002820490506001821680610bb657607f821691505b602082108103610bc957610bc8610b6f565b5b50919050565b60008190508160005260206000209050919050565b60006020601f8301049050919050565b600082821b905092915050565b600060088302610c317fffffffffffffffffffffffffffffffffffffffffffffffffffffffffffffffff82610bf4565b610c3b8683610bf4565b95508019841693508086168417925050509392505050565b6000819050919050565b6000610c78610c73610c6e8461088a565b610c53565b61088a565b9050919050565b6000819050919050565b610c9283610c5d565b610ca6610c9e82610c7f565b848454610c01565b825550505050565b600090565b610cbb610cae565b610cc6818484610c89565b505050565b5b81811015610cea57610cdf600082610cb3565b600181019050610ccc565b5050565b601f821115610d2f57610d0081610bcf565b610d0984610be4565b81016020851015610d18578190505b610d2c610d2485610be4565b830182610ccb565b50505b505050565b600082821c905092915050565b6000610d5260001984600802610d34565b1980831691505092915050565b6000610d6b8383610d41565b9150826002028217905092915050565b610d8482610a0e565b67ffffffffffffffff811115610d9d57610d9c61075f565b5b610da78254610b9e565b610db2828285610cee565b600060209050601f831160018114610de55760008415610dd3578287015190505b610ddd8582610d5f565b865550610e45565b601f198416610df386610bcf565b60005b82811015610e1b57848901518255600182019150602085019450602081019050610df6565b86831015610e385784890151610e34601f891682610d41565b8355505b6001600288020188555050505b505050505050565b600081549050610e5c81610b9e565b9050919050565b818103610e71575050610f49565b610e7a82610e4d565b67ffffffffffffffff811115610e9357610e9261075f565b5b610e9d8254610b9e565b610ea8828285610cee565b6000601f831160018114610ed75760008415610ec5578287015490505b610ecf8582610d5f565b865550610f42565b601f198416610ee587610bcf565b9650610ef086610bcf565b60005b82811015610f1857848901548255600182019150600185019450602081019050610ef3565b86831015610f355784890154610f31601f891682610d41565b8355505b6001600288020188555050505b5050505050505b565b610f5481610706565b82525050565b600082825260208201905092915050565b60008154610f7881610b9e565b610f828186610f5a565b94506001821660008114610f9d5760018114610fb357610fe6565b60ff198316865281151560200286019350610fe6565b610fbc85610bcf565b60005b83811015610fde57815481890152600182019150602081019050610fbf565b808801955050505b50505092915050565b610ff88161088a565b82525050565b600060e082019050611013600083018a610f4b565b81810360208301526110258189610f6b565b905081810360408301526110398188610f6b565b90506110486060830187610fef565b6110556080830186610fef565b81810360a08301526110678185610f6b565b905081810360c083015261107b8184610f6b565b90509897505050505050505056fea2646970667358221220c7696efaca73a3fb609414bcaed42a83bc2e98cb36fe90dbb36d966aecc42c7364736f6c63430008110033",
    "immutableReferences": {},
    "source": "//SPDX-License-Identifier: UNLICENSED\r\npragma solidity ^0.8.17;\r\ncontract Patient {\r\n    address[] internal patientlist;\r\n    mapping(address => patient) internal patients;\r\n    // mapping(uint256 =>attendant) attendantlist;\r\n\r\n    event PatientAdded(\r\n        address id_,\r\n        string _fname,\r\n        string _lname,\r\n        uint256 _cin,\r\n        uint256 _phone,\r\n        string _email,\r\n        string _address\r\n    );\r\n\r\n    struct patient {\r\n        address id;\r\n        string fname;\r\n        string lname;\r\n        uint256 cin;\r\n        uint256 phone;\r\n        string email;\r\n        string adress;\r\n    }\r\n    patient p;\r\n\r\n\r\n    //  struct attendant{\r\n    //      uint256 patient_id;\r\n    //  string attendant_name;\r\n    //  string attendant_relation;\r\n    //  uint256 attendant_phn_no;\r\n    //  }\r\n    //  attendant a;\r\n\r\n    //  address owner;\r\n\r\n    //   constructor()  public {\r\n    //       owner = 0xE6005Cc724c2d44F0aF23d663017a7E375DD7F35; //Address of Hospital\r\n    //   }\r\n\r\n    //   // modifier to give access only to hospital\r\n    //   modifier isOwner() {\r\n\r\n    //      require(msg.sender == owner, \"Access is not allowed\");\r\n\r\n    //      _;\r\n\r\n    //  }\r\n\r\n    //  function store_patient_details(string memory _fname,string memory _lname,uint256  _cin, uint256 _phone ,string memory _email,string memory _address) public {\r\n\r\n    //   * @param _id id\r\n    //  * @param _fname fname\r\n    //  * @param _lname lname\r\n    //  * @param _cin cin\r\n    //  * @param _phone phone\r\n    //  * @param _email email\r\n    //  * @param _address adress\r\n    //  p.fname=_fname;\r\n    //  p.lname=_lname;\r\n    //  p.cin=_cin;\r\n    //  p.phone=_phone;\r\n    //  p.email=_email;\r\n    //  p.adress=_address;\r\n\r\n    //     patientlist.push(p.cin);\r\n\r\n    //      }\r\n\r\n    /**\r\n         * @dev Store patient details\r\n            //   * @param _id id\r\n            //  * @param _fname fname\r\n           //  * @param _lname lname\r\n          //  * @param _cin cin\r\n           //  * @param _phone phone\r\n            //  * @param _email email\r\n          //  * @param _address adress\r\n\r\n         */\r\n    function store_patient_details(\r\n        address _id,\r\n        string memory _fname,\r\n        string memory _lname,\r\n        uint256 _cin,\r\n        uint256 _phone,\r\n        string memory _email,\r\n        string memory _address\r\n    ) public {\r\n        p.id = _id;\r\n        p.fname = _fname;\r\n        p.lname = _lname;\r\n        p.cin = _cin;\r\n        p.phone = _phone;\r\n        p.email = _email;\r\n        p.adress = _address;\r\n        patients[p.id] = p;\r\n        patientlist.push(p.id);\r\n        emit PatientAdded(\r\n            p.id,\r\n            p.fname,\r\n            p.lname,\r\n            p.cin,\r\n            p.phone,\r\n            p.email,\r\n            p.adress\r\n        );\r\n    }\r\n\r\n    //  /**\r\n    //  * @dev Store attendant details\r\n    //  * @param patient_id patient id\r\n    //  * @param _attendant_name name of attendant\r\n    //  * @param _attendant_relation relation to patient\r\n    //  * @param _attendant_phn_no phone no\r\n    //  * */\r\n    //  function store_attendant_details(uint256 patient_id,string memory _attendant_name,string memory _attendant_relation, uint256 _attendant_phn_no)public isOwner {\r\n\r\n    //      a.patient_id = patient_id;\r\n    //     a.attendant_name=_attendant_name;\r\n    //      a.attendant_relation=_attendant_relation;\r\n    //      a.attendant_phn_no=_attendant_phn_no;\r\n\r\n    //      attendantlist[patient_id] = a;\r\n    //  }\r\n\r\n    /**\r\n    //  * @dev Retreive patient details\r\n    //  * @param id patient cin\r\n    //  * @return patient object\r\n     * */\r\n    function retreive_patient_details(address id)\r\n        public\r\n        view\r\n        returns (patient memory)\r\n    {\r\n        return patients[id];\r\n    }\r\n\r\n    //  /**\r\n    //  * @dev Retreive attendant details\r\n    //  * @param patient_id patient id\r\n    //  * */\r\n    //  function retreive_attendant_details(uint256 patient_id) public view returns (string memory,string memory,uint256){\r\n\r\n    //       attendant memory a = attendantlist[patient_id];\r\n\r\n    //   return (a.attendant_name,a.attendant_relation,a.attendant_phn_no);\r\n\r\n    //  }\r\n}",
    "sourcePath": "C:\\Users\\RAMI\\Desktop\\blockchain\\contracts\\contracts\\Patient.sol",
    "compiler": {
        "name": "solc",
        "version": "0.8.17+commit.8df45f5f.Emscripten.clang"
    },
    "schemaVersion": "3.4.11",
    "updatedAt": "2022-12-05T22:34:18.579Z",
    "networkType": "ethereum",
    "devdoc": {
        "kind": "dev",
        "methods": {
            "retreive_patient_details(address)": {
                "details": "Retreive patient details",
                "params": {
                    "id": "patient cin"
                },
                "returns": {
                    "_0": "patient object "
                }
            },
            "store_patient_details(address,string,string,uint256,uint256,string,string)": {
                "details": "Store patient details",
                "params": {
                    "_address": "adress",
                    "_cin": "cin",
                    "_email": "email",
                    "_fname": "fname",
                    "_id": "id",
                    "_lname": "lname",
                    "_phone": "phone"
                }
            }
        },
        "version": 1
    },
    "userdoc": {
        "kind": "user",
        "methods": {},
        "version": 1
    }
}